{
  "contractName": "ERC20",
  "abi": [
    {
      "inputs": [
        {
          "internalType": "string",
          "name": "name_",
          "type": "string"
        },
        {
          "internalType": "string",
          "name": "symbol_",
          "type": "string"
        }
      ],
      "stateMutability": "nonpayable",
      "type": "constructor"
    },
    {
      "inputs": [
        {
          "internalType": "address",
          "name": "spender",
          "type": "address"
        },
        {
          "internalType": "uint256",
          "name": "allowance",
          "type": "uint256"
        },
        {
          "internalType": "uint256",
          "name": "needed",
          "type": "uint256"
        }
      ],
      "name": "ERC20InsufficientAllowance",
      "type": "error"
    },
    {
      "inputs": [
        {
          "internalType": "address",
          "name": "sender",
          "type": "address"
        },
        {
          "internalType": "uint256",
          "name": "balance",
          "type": "uint256"
        },
        {
          "internalType": "uint256",
          "name": "needed",
          "type": "uint256"
        }
      ],
      "name": "ERC20InsufficientBalance",
      "type": "error"
    },
    {
      "inputs": [
        {
          "internalType": "address",
          "name": "approver",
          "type": "address"
        }
      ],
      "name": "ERC20InvalidApprover",
      "type": "error"
    },
    {
      "inputs": [
        {
          "internalType": "address",
          "name": "receiver",
          "type": "address"
        }
      ],
      "name": "ERC20InvalidReceiver",
      "type": "error"
    },
    {
      "inputs": [
        {
          "internalType": "address",
          "name": "sender",
          "type": "address"
        }
      ],
      "name": "ERC20InvalidSender",
      "type": "error"
    },
    {
      "inputs": [
        {
          "internalType": "address",
          "name": "spender",
          "type": "address"
        }
      ],
      "name": "ERC20InvalidSpender",
      "type": "error"
    },
    {
      "anonymous": false,
      "inputs": [
        {
          "indexed": true,
          "internalType": "address",
          "name": "owner",
          "type": "address"
        },
        {
          "indexed": true,
          "internalType": "address",
          "name": "spender",
          "type": "address"
        },
        {
          "indexed": false,
          "internalType": "uint256",
          "name": "value",
          "type": "uint256"
        }
      ],
      "name": "Approval",
      "type": "event"
    },
    {
      "anonymous": false,
      "inputs": [
        {
          "indexed": true,
          "internalType": "address",
          "name": "from",
          "type": "address"
        },
        {
          "indexed": true,
          "internalType": "address",
          "name": "to",
          "type": "address"
        },
        {
          "indexed": false,
          "internalType": "uint256",
          "name": "value",
          "type": "uint256"
        }
      ],
      "name": "Transfer",
      "type": "event"
    },
    {
      "inputs": [],
      "name": "destroyOwnership",
      "outputs": [],
      "stateMutability": "nonpayable",
      "type": "function"
    },
    {
      "inputs": [],
      "name": "getOwner",
      "outputs": [
        {
          "internalType": "address",
          "name": "",
          "type": "address"
        }
      ],
      "stateMutability": "view",
      "type": "function"
    },
    {
      "inputs": [
        {
          "internalType": "bytes4",
          "name": "interfaceId",
          "type": "bytes4"
        }
      ],
      "name": "supportsInterface",
      "outputs": [
        {
          "internalType": "bool",
          "name": "",
          "type": "bool"
        }
      ],
      "stateMutability": "view",
      "type": "function"
    },
    {
      "inputs": [
        {
          "internalType": "address",
          "name": "newOwner",
          "type": "address"
        }
      ],
      "name": "transferOwnership",
      "outputs": [],
      "stateMutability": "nonpayable",
      "type": "function"
    },
    {
      "inputs": [],
      "name": "name",
      "outputs": [
        {
          "internalType": "string",
          "name": "",
          "type": "string"
        }
      ],
      "stateMutability": "view",
      "type": "function"
    },
    {
      "inputs": [],
      "name": "symbol",
      "outputs": [
        {
          "internalType": "string",
          "name": "",
          "type": "string"
        }
      ],
      "stateMutability": "view",
      "type": "function"
    },
    {
      "inputs": [],
      "name": "decimals",
      "outputs": [
        {
          "internalType": "uint8",
          "name": "",
          "type": "uint8"
        }
      ],
      "stateMutability": "view",
      "type": "function"
    },
    {
      "inputs": [],
      "name": "totalSupply",
      "outputs": [
        {
          "internalType": "uint256",
          "name": "",
          "type": "uint256"
        }
      ],
      "stateMutability": "view",
      "type": "function"
    },
    {
      "inputs": [
        {
          "internalType": "address",
          "name": "account",
          "type": "address"
        }
      ],
      "name": "balanceOf",
      "outputs": [
        {
          "internalType": "uint256",
          "name": "",
          "type": "uint256"
        }
      ],
      "stateMutability": "view",
      "type": "function"
    },
    {
      "inputs": [
        {
          "internalType": "address",
          "name": "to",
          "type": "address"
        },
        {
          "internalType": "uint256",
          "name": "value",
          "type": "uint256"
        }
      ],
      "name": "transfer",
      "outputs": [
        {
          "internalType": "bool",
          "name": "",
          "type": "bool"
        }
      ],
      "stateMutability": "nonpayable",
      "type": "function"
    },
    {
      "inputs": [
        {
          "internalType": "address",
          "name": "owner",
          "type": "address"
        },
        {
          "internalType": "address",
          "name": "spender",
          "type": "address"
        }
      ],
      "name": "allowance",
      "outputs": [
        {
          "internalType": "uint256",
          "name": "",
          "type": "uint256"
        }
      ],
      "stateMutability": "view",
      "type": "function"
    },
    {
      "inputs": [
        {
          "internalType": "address",
          "name": "spender",
          "type": "address"
        },
        {
          "internalType": "uint256",
          "name": "value",
          "type": "uint256"
        }
      ],
      "name": "approve",
      "outputs": [
        {
          "internalType": "bool",
          "name": "",
          "type": "bool"
        }
      ],
      "stateMutability": "nonpayable",
      "type": "function"
    },
    {
      "inputs": [
        {
          "internalType": "address",
          "name": "from",
          "type": "address"
        },
        {
          "internalType": "address",
          "name": "to",
          "type": "address"
        },
        {
          "internalType": "uint256",
          "name": "value",
          "type": "uint256"
        }
      ],
      "name": "transferFrom",
      "outputs": [
        {
          "internalType": "bool",
          "name": "",
          "type": "bool"
        }
      ],
      "stateMutability": "nonpayable",
      "type": "function"
    },
    {
      "inputs": [
        {
          "internalType": "address",
          "name": "account",
          "type": "address"
        },
        {
          "internalType": "uint256",
          "name": "value",
          "type": "uint256"
        }
      ],
      "name": "mint",
      "outputs": [
        {
          "internalType": "bool",
          "name": "",
          "type": "bool"
        }
      ],
      "stateMutability": "nonpayable",
      "type": "function"
    },
    {
      "inputs": [
        {
          "internalType": "uint256",
          "name": "value",
          "type": "uint256"
        }
      ],
      "name": "burn",
      "outputs": [
        {
          "internalType": "bool",
          "name": "",
          "type": "bool"
        }
      ],
      "stateMutability": "nonpayable",
      "type": "function"
    }
  ],
  "bytecode": "0x608060405234801562000010575f80fd5b5060405162001d1538038062001d158339818101604052810190620000369190620003b4565b620000466200015460201b60201c565b5f806101000a81548173ffffffffffffffffffffffffffffffffffffffff021916908373ffffffffffffffffffffffffffffffffffffffff16021790555081600590816200009591906200066e565b508060069081620000a791906200066e565b50620000d97f01ffc9a7000000000000000000000000000000000000000000000000000000006200015b60201b60201c565b6200010a7f36372b07000000000000000000000000000000000000000000000000000000006200015b60201b60201c565b6200013b7fa219a025000000000000000000000000000000000000000000000000000000006200015b60201b60201c565b6200014c5f6200015b60201b60201c565b5050620007d0565b5f33905090565b63ffffffff60e01b817bffffffffffffffffffffffffffffffffffffffffffffffffffffffff191603620001c6576040517f08c379a0000000000000000000000000000000000000000000000000000000008152600401620001bd90620007b0565b60405180910390fd5b6001805f837bffffffffffffffffffffffffffffffffffffffffffffffffffffffff19167bffffffffffffffffffffffffffffffffffffffffffffffffffffffff191681526020019081526020015f205f6101000a81548160ff02191690831515021790555050565b5f604051905090565b5f80fd5b5f80fd5b5f80fd5b5f80fd5b5f601f19601f8301169050919050565b7f4e487b71000000000000000000000000000000000000000000000000000000005f52604160045260245ffd5b620002908262000248565b810181811067ffffffffffffffff82111715620002b257620002b162000258565b5b80604052505050565b5f620002c66200022f565b9050620002d4828262000285565b919050565b5f67ffffffffffffffff821115620002f657620002f562000258565b5b620003018262000248565b9050602081019050919050565b5f5b838110156200032d57808201518184015260208101905062000310565b5f8484015250505050565b5f6200034e6200034884620002d9565b620002bb565b9050828152602081018484840111156200036d576200036c62000244565b5b6200037a8482856200030e565b509392505050565b5f82601f83011262000399576200039862000240565b5b8151620003ab84826020860162000338565b91505092915050565b5f8060408385031215620003cd57620003cc62000238565b5b5f83015167ffffffffffffffff811115620003ed57620003ec6200023c565b5b620003fb8582860162000382565b925050602083015167ffffffffffffffff8111156200041f576200041e6200023c565b5b6200042d8582860162000382565b9150509250929050565b5f81519050919050565b7f4e487b71000000000000000000000000000000000000000000000000000000005f52602260045260245ffd5b5f60028204905060018216806200048657607f821691505b6020821081036200049c576200049b62000441565b5b50919050565b5f819050815f5260205f209050919050565b5f6020601f8301049050919050565b5f82821b905092915050565b5f60088302620005007fffffffffffffffffffffffffffffffffffffffffffffffffffffffffffffffff82620004c3565b6200050c8683620004c3565b95508019841693508086168417925050509392505050565b5f819050919050565b5f819050919050565b5f62000556620005506200054a8462000524565b6200052d565b62000524565b9050919050565b5f819050919050565b620005718362000536565b6200058962000580826200055d565b848454620004cf565b825550505050565b5f90565b6200059f62000591565b620005ac81848462000566565b505050565b5b81811015620005d357620005c75f8262000595565b600181019050620005b2565b5050565b601f8211156200062257620005ec81620004a2565b620005f784620004b4565b8101602085101562000607578190505b6200061f6200061685620004b4565b830182620005b1565b50505b505050565b5f82821c905092915050565b5f620006445f198460080262000627565b1980831691505092915050565b5f6200065e838362000633565b9150826002028217905092915050565b620006798262000437565b67ffffffffffffffff81111562000695576200069462000258565b5b620006a182546200046e565b620006ae828285620005d7565b5f60209050601f831160018114620006e4575f8415620006cf578287015190505b620006db858262000651565b8655506200074a565b601f198416620006f486620004a2565b5f5b828110156200071d57848901518255600182019150602085019450602081019050620006f6565b868310156200073d578489015162000739601f89168262000633565b8355505b6001600288020188555050505b505050505050565b5f82825260208201905092915050565b7f4552433136353a20696e76616c696420696e74657266616365206964000000005f82015250565b5f62000798601c8362000752565b9150620007a58262000762565b602082019050919050565b5f6020820190508181035f830152620007c9816200078a565b9050919050565b61153780620007de5f395ff3fe608060405234801561000f575f80fd5b50600436106100f3575f3560e01c806342966c6811610095578063a9059cbb11610064578063a9059cbb146102ad578063c6863fe3146102dd578063dd62ed3e146102e7578063f2fde38b14610317576100f3565b806342966c681461021157806370a0823114610241578063893d20e81461027157806395d89b411461028f576100f3565b806318160ddd116100d157806318160ddd1461017557806323b872dd14610193578063313ce567146101c357806340c10f19146101e1576100f3565b806301ffc9a7146100f757806306fdde0314610127578063095ea7b314610145575b5f80fd5b610111600480360381019061010c9190610fde565b610333565b60405161011e9190611023565b60405180910390f35b61012f610397565b60405161013c91906110c6565b60405180910390f35b61015f600480360381019061015a9190611173565b610427565b60405161016c9190611023565b60405180910390f35b61017d610449565b60405161018a91906111c0565b60405180910390f35b6101ad60048036038101906101a891906111d9565b610452565b6040516101ba9190611023565b60405180910390f35b6101cb610480565b6040516101d89190611244565b60405180910390f35b6101fb60048036038101906101f69190611173565b610488565b6040516102089190611023565b60405180910390f35b61022b6004803603810190610226919061125d565b610532565b6040516102389190611023565b60405180910390f35b61025b60048036038101906102569190611288565b61054d565b60405161026891906111c0565b60405180910390f35b610279610593565b60405161028691906112c2565b60405180910390f35b6102976105ba565b6040516102a491906110c6565b60405180910390f35b6102c760048036038101906102c29190611173565b61064a565b6040516102d49190611023565b60405180910390f35b6102e561066c565b005b61030160048036038101906102fc91906112db565b610741565b60405161030e91906111c0565b60405180910390f35b610331600480360381019061032c9190611288565b6107c3565b005b5f60015f837bffffffffffffffffffffffffffffffffffffffffffffffffffffffff19167bffffffffffffffffffffffffffffffffffffffffffffffffffffffff191681526020019081526020015f205f9054906101000a900460ff169050919050565b6060600580546103a690611346565b80601f01602080910402602001604051908101604052809291908181526020018280546103d290611346565b801561041d5780601f106103f45761010080835404028352916020019161041d565b820191905f5260205f20905b81548152906001019060200180831161040057829003601f168201915b5050505050905090565b5f806104316108d0565b905061043e8185856108d7565b600191505092915050565b5f600454905090565b5f8061045c6108d0565b9050610469858285610a9e565b610474858585610b2f565b60019150509392505050565b5f6012905090565b5f805f9054906101000a900473ffffffffffffffffffffffffffffffffffffffff1673ffffffffffffffffffffffffffffffffffffffff166104c86108d0565b73ffffffffffffffffffffffffffffffffffffffff161461051e576040517f08c379a0000000000000000000000000000000000000000000000000000000008152600401610515906113e6565b60405180910390fd5b6105288383610c1f565b6001905092915050565b5f61054461053e6108d0565b83610c9e565b60019050919050565b5f60025f8373ffffffffffffffffffffffffffffffffffffffff1673ffffffffffffffffffffffffffffffffffffffff1681526020019081526020015f20549050919050565b5f805f9054906101000a900473ffffffffffffffffffffffffffffffffffffffff16905090565b6060600680546105c990611346565b80601f01602080910402602001604051908101604052809291908181526020018280546105f590611346565b80156106405780601f1061061757610100808354040283529160200191610640565b820191905f5260205f20905b81548152906001019060200180831161062357829003601f168201915b5050505050905090565b5f806106546108d0565b9050610661818585610b2f565b600191505092915050565b5f8054906101000a900473ffffffffffffffffffffffffffffffffffffffff1673ffffffffffffffffffffffffffffffffffffffff166106aa6108d0565b73ffffffffffffffffffffffffffffffffffffffff1614610700576040517f08c379a00000000000000000000000000000000000000000000000000000000081526004016106f7906113e6565b60405180910390fd5b5f805f6101000a81548173ffffffffffffffffffffffffffffffffffffffff021916908373ffffffffffffffffffffffffffffffffffffffff160217905550565b5f60035f8473ffffffffffffffffffffffffffffffffffffffff1673ffffffffffffffffffffffffffffffffffffffff1681526020019081526020015f205f8373ffffffffffffffffffffffffffffffffffffffff1673ffffffffffffffffffffffffffffffffffffffff1681526020019081526020015f2054905092915050565b5f8054906101000a900473ffffffffffffffffffffffffffffffffffffffff1673ffffffffffffffffffffffffffffffffffffffff166108016108d0565b73ffffffffffffffffffffffffffffffffffffffff1614610857576040517f08c379a000000000000000000000000000000000000000000000000000000000815260040161084e906113e6565b60405180910390fd5b5f73ffffffffffffffffffffffffffffffffffffffff168173ffffffffffffffffffffffffffffffffffffffff160361088e575f80fd5b805f806101000a81548173ffffffffffffffffffffffffffffffffffffffff021916908373ffffffffffffffffffffffffffffffffffffffff16021790555050565b5f33905090565b5f73ffffffffffffffffffffffffffffffffffffffff168373ffffffffffffffffffffffffffffffffffffffff1603610947575f6040517fe602df0500000000000000000000000000000000000000000000000000000000815260040161093e91906112c2565b60405180910390fd5b5f73ffffffffffffffffffffffffffffffffffffffff168273ffffffffffffffffffffffffffffffffffffffff16036109b7575f6040517f94280d620000000000000000000000000000000000000000000000000000000081526004016109ae91906112c2565b60405180910390fd5b8060035f8573ffffffffffffffffffffffffffffffffffffffff1673ffffffffffffffffffffffffffffffffffffffff1681526020019081526020015f205f8473ffffffffffffffffffffffffffffffffffffffff1673ffffffffffffffffffffffffffffffffffffffff1681526020019081526020015f20819055508173ffffffffffffffffffffffffffffffffffffffff168373ffffffffffffffffffffffffffffffffffffffff167f8c5be1e5ebec7d5bd14f71427d1e84f3dd0314c0f7b2291e5b200ac8c7c3b92583604051610a9191906111c0565b60405180910390a3505050565b5f610aa98484610741565b90507fffffffffffffffffffffffffffffffffffffffffffffffffffffffffffffffff8114610b295781811015610b1b578281836040517ffb8f41b2000000000000000000000000000000000000000000000000000000008152600401610b1293929190611404565b60405180910390fd5b610b2884848484036108d7565b5b50505050565b5f73ffffffffffffffffffffffffffffffffffffffff168373ffffffffffffffffffffffffffffffffffffffff1603610b9f575f6040517f96c6fd1e000000000000000000000000000000000000000000000000000000008152600401610b9691906112c2565b60405180910390fd5b5f73ffffffffffffffffffffffffffffffffffffffff168273ffffffffffffffffffffffffffffffffffffffff1603610c0f575f6040517fec442f05000000000000000000000000000000000000000000000000000000008152600401610c0691906112c2565b60405180910390fd5b610c1a838383610d1d565b505050565b5f73ffffffffffffffffffffffffffffffffffffffff168273ffffffffffffffffffffffffffffffffffffffff1603610c8f575f6040517fec442f05000000000000000000000000000000000000000000000000000000008152600401610c8691906112c2565b60405180910390fd5b610c9a5f8383610d1d565b5050565b5f73ffffffffffffffffffffffffffffffffffffffff168273ffffffffffffffffffffffffffffffffffffffff1603610d0e575f6040517f96c6fd1e000000000000000000000000000000000000000000000000000000008152600401610d0591906112c2565b60405180910390fd5b610d19825f83610d1d565b5050565b5f73ffffffffffffffffffffffffffffffffffffffff168373ffffffffffffffffffffffffffffffffffffffff1603610db9575f60045490508160045f828254610d679190611466565b92505081905550600454811115610db3576040517f08c379a0000000000000000000000000000000000000000000000000000000008152600401610daa906114e3565b60405180910390fd5b50610e89565b5f60025f8573ffffffffffffffffffffffffffffffffffffffff1673ffffffffffffffffffffffffffffffffffffffff1681526020019081526020015f2054905081811015610e43578381836040517fe450d38c000000000000000000000000000000000000000000000000000000008152600401610e3a93929190611404565b60405180910390fd5b81810360025f8673ffffffffffffffffffffffffffffffffffffffff1673ffffffffffffffffffffffffffffffffffffffff1681526020019081526020015f2081905550505b5f73ffffffffffffffffffffffffffffffffffffffff168273ffffffffffffffffffffffffffffffffffffffff1603610ed0578060045f8282540392505081905550610f1b565b8060025f8473ffffffffffffffffffffffffffffffffffffffff1673ffffffffffffffffffffffffffffffffffffffff1681526020019081526020015f205f82825401925050819055505b8173ffffffffffffffffffffffffffffffffffffffff168373ffffffffffffffffffffffffffffffffffffffff167fddf252ad1be2c89b69c2b068fc378daa952ba7f163c4a11628f55a4df523b3ef83604051610f7891906111c0565b60405180910390a3505050565b5f80fd5b5f7fffffffff0000000000000000000000000000000000000000000000000000000082169050919050565b610fbd81610f89565b8114610fc7575f80fd5b50565b5f81359050610fd881610fb4565b92915050565b5f60208284031215610ff357610ff2610f85565b5b5f61100084828501610fca565b91505092915050565b5f8115159050919050565b61101d81611009565b82525050565b5f6020820190506110365f830184611014565b92915050565b5f81519050919050565b5f82825260208201905092915050565b5f5b83811015611073578082015181840152602081019050611058565b5f8484015250505050565b5f601f19601f8301169050919050565b5f6110988261103c565b6110a28185611046565b93506110b2818560208601611056565b6110bb8161107e565b840191505092915050565b5f6020820190508181035f8301526110de818461108e565b905092915050565b5f73ffffffffffffffffffffffffffffffffffffffff82169050919050565b5f61110f826110e6565b9050919050565b61111f81611105565b8114611129575f80fd5b50565b5f8135905061113a81611116565b92915050565b5f819050919050565b61115281611140565b811461115c575f80fd5b50565b5f8135905061116d81611149565b92915050565b5f806040838503121561118957611188610f85565b5b5f6111968582860161112c565b92505060206111a78582860161115f565b9150509250929050565b6111ba81611140565b82525050565b5f6020820190506111d35f8301846111b1565b92915050565b5f805f606084860312156111f0576111ef610f85565b5b5f6111fd8682870161112c565b935050602061120e8682870161112c565b925050604061121f8682870161115f565b9150509250925092565b5f60ff82169050919050565b61123e81611229565b82525050565b5f6020820190506112575f830184611235565b92915050565b5f6020828403121561127257611271610f85565b5b5f61127f8482850161115f565b91505092915050565b5f6020828403121561129d5761129c610f85565b5b5f6112aa8482850161112c565b91505092915050565b6112bc81611105565b82525050565b5f6020820190506112d55f8301846112b3565b92915050565b5f80604083850312156112f1576112f0610f85565b5b5f6112fe8582860161112c565b925050602061130f8582860161112c565b9150509250929050565b7f4e487b71000000000000000000000000000000000000000000000000000000005f52602260045260245ffd5b5f600282049050600182168061135d57607f821691505b6020821081036113705761136f611319565b5b50919050565b7f4f6e6c79206f776e65722063616e206578656375746520746869732066756e635f8201527f74696f6e00000000000000000000000000000000000000000000000000000000602082015250565b5f6113d0602483611046565b91506113db82611376565b604082019050919050565b5f6020820190508181035f8301526113fd816113c4565b9050919050565b5f6060820190506114175f8301866112b3565b61142460208301856111b1565b61143160408301846111b1565b949350505050565b7f4e487b71000000000000000000000000000000000000000000000000000000005f52601160045260245ffd5b5f61147082611140565b915061147b83611140565b925082820190508082111561149357611492611439565b5b92915050565b7f4f766572666c6f772100000000000000000000000000000000000000000000005f82015250565b5f6114cd600983611046565b91506114d882611499565b602082019050919050565b5f6020820190508181035f8301526114fa816114c1565b905091905056fea26469706673582212200740f526bf261a3e6387339b87971cc4f6add5f1260d21e05c765c2249a375f964736f6c63430008140033",
  "immutableReferences": {},
  "source": "// SPDX-License-Identifier: MIT\r\n\r\npragma solidity^0.8.10;\r\n\r\nimport {IERC165} from \"../Interfaces/IERC165.sol\";\r\n\r\nimport {ERC165} from \"./ERC165.sol\";\r\n\r\nimport {IERC20} from \"../Interfaces/IERC20.sol\";\r\n\r\nimport {IERC20Metadata} from \"../Interfaces/IERC20Metadata.sol\";\r\n\r\nimport {IERC20Errors} from \"../Interfaces/IERC20Errors.sol\";\r\n\r\nimport {Context} from \"./Context.sol\";\r\n\r\nimport {Ownable} from \"./Ownable.sol\";\r\n\r\n// import {_address} from \"../Libraries/Addresses.sol\";\r\n\r\n\r\ncontract ERC20 is Context,Ownable,ERC165,IERC20,IERC20Metadata,IERC20Errors{\r\n\r\n    // using _address for address;\r\n\r\n    mapping(address=> uint256) private _balances;\r\n\r\n    mapping(address=> mapping(address =>uint256)) private _allowances;\r\n\r\n    uint256 private _totalSupply;\r\n    string private _name;\r\n    string private _symbol;\r\n\r\n    \r\n\r\n    constructor(string memory name_, string memory symbol_){\r\n        _owner = _msgSender();\r\n        _name = name_;\r\n        _symbol= symbol_;\r\n        _registerInterface(type(IERC165).interfaceId);\r\n        _registerInterface(type(IERC20).interfaceId);\r\n        _registerInterface(type(IERC20Metadata).interfaceId);\r\n        _registerInterface(type(IERC20Errors).interfaceId);\r\n    }\r\n\r\n    function name() public view virtual returns(string memory){\r\n        return _name;\r\n    }\r\n\r\n    function symbol() public view virtual returns(string memory){\r\n        return _symbol;\r\n    }\r\n\r\n    function decimals() public view virtual returns(uint8){\r\n        //@todo Hardcoded oder Constructorargument ?\r\n        return 18;\r\n    }\r\n\r\n    function totalSupply() public view virtual returns(uint256){\r\n        return _totalSupply;\r\n    }\r\n\r\n    function balanceOf(address account) public view virtual returns(uint256){\r\n        return _balances[account];\r\n    }\r\n\r\n    function transfer(address to, uint256 value) public virtual returns(bool){\r\n        address owner = _msgSender();\r\n        _transfer(owner,to,value);\r\n        return true;\r\n    }\r\n\r\n    function allowance(address owner,address spender)public view virtual returns(uint256){\r\n        return _allowances[owner][spender];\r\n    }\r\n\r\n    function approve(address spender, uint256 value) public virtual returns(bool){\r\n        address owner = _msgSender();\r\n        _approve(owner,spender,value);\r\n        return true;\r\n    }\r\n\r\n    function transferFrom(address from, address to, uint256 value) public virtual returns(bool){\r\n        address spender = _msgSender();\r\n        _spendAllowance(from,spender,value);\r\n        _transfer(from,to,value);\r\n        return true;\r\n    }\r\n\r\n    function mint(address account, uint256 value) public virtual onlyOwner() returns(bool){\r\n        _mint(account, value);\r\n        return true;\r\n    }\r\n\r\n    function burn(uint256 value) public virtual returns(bool){\r\n        _burn(_msgSender(),value );\r\n        return true;\r\n    }\r\n\r\n    function _transfer(address from,address to, uint256 value) internal{\r\n        if(from == address(0)){\r\n            revert ERC20InvalidSender(address(0));\r\n        }\r\n        if(to == address(0)){\r\n            revert ERC20InvalidReceiver(address(0));\r\n        }\r\n        _update(from,to,value);\r\n    }\r\n\r\n    function _update(address from, address to,uint256 value) internal virtual{\r\n        // if(to.isContract()){\r\n\r\n        // }\r\n        if (from == address(0)){ \r\n            uint256 _before = _totalSupply;\r\n            _totalSupply += value;\r\n            require(_before <= _totalSupply,\"Overflow!\");\r\n        }else{\r\n            uint256 _frombalance = _balances[from];\r\n            if(_frombalance < value){\r\n                revert ERC20InsufficientBalance(from,_frombalance,value);\r\n            }\r\n            unchecked {\r\n                _balances[from] = _frombalance-value;\r\n            }\r\n        }\r\n\r\n        if(to == address(0)){\r\n            unchecked {\r\n                _totalSupply -= value;\r\n            }\r\n        } else{\r\n            unchecked {\r\n                _balances[to] += value;\r\n            }\r\n        }\r\n\r\n        emit Transfer(from, to, value);\r\n    }\r\n\r\n    function _mint(address account,uint256 value) internal {\r\n        if(account == address(0)){\r\n            revert ERC20InvalidReceiver(address(0));\r\n        }\r\n        _update(address(0),account,value);\r\n    }\r\n\r\n    function _burn(address account, uint256 value) internal {\r\n        if(account == address(0)){\r\n            revert ERC20InvalidSender(address(0));\r\n        }\r\n        _update(account,address(0), value);\r\n    }\r\n\r\n    function _approve(address owner, address spender, uint256 value) internal {\r\n        if(owner == address(0)){\r\n            revert ERC20InvalidApprover(address(0));\r\n        }\r\n        if(spender == address(0)){\r\n            revert ERC20InvalidSpender(address(0));\r\n        }\r\n\r\n        _allowances[owner][spender] = value;\r\n        emit Approval(owner, spender, value);\r\n    }\r\n\r\n    function _spendAllowance(address owner, address spender, uint256 value) internal virtual{\r\n        uint256 currentAllowance = allowance(owner, spender);\r\n        if(currentAllowance != type(uint256).max){\r\n            if(currentAllowance < value){\r\n                revert ERC20InsufficientAllowance(spender,currentAllowance,value);\r\n            }\r\n            unchecked {\r\n                _approve(owner, spender,currentAllowance - value);\r\n            }\r\n        }\r\n    }\r\n\r\n\r\n\r\n}\r\n",
  "sourcePath": "C:\\Users\\Jonas\\Desktop\\Programmierstuff\\eigene Projekte\\Staking-Contract\\contracts\\ERC20.sol",
  "compiler": {
    "name": "solc",
    "version": "0.8.20+commit.a1b79de6.Emscripten.clang"
  },
  "schemaVersion": "3.4.15",
  "updatedAt": "2024-01-14T16:26:18.578Z",
  "devdoc": {
    "kind": "dev",
    "methods": {},
    "version": 1
  },
  "userdoc": {
    "kind": "user",
    "methods": {},
    "version": 1
  }
}