{
  "contractName": "Ownable",
  "abi": [
    {
      "inputs": [],
      "name": "getOwner",
      "outputs": [
        {
          "internalType": "address",
          "name": "",
          "type": "address"
        }
      ],
      "stateMutability": "view",
      "type": "function"
    },
    {
      "inputs": [
        {
          "internalType": "address",
          "name": "newOwner",
          "type": "address"
        }
      ],
      "name": "transferOwnership",
      "outputs": [],
      "stateMutability": "nonpayable",
      "type": "function"
    },
    {
      "inputs": [],
      "name": "destroyOwnership",
      "outputs": [],
      "stateMutability": "nonpayable",
      "type": "function"
    }
  ],
  "bytecode": "0x608060405234801561000f575f80fd5b5061041c8061001d5f395ff3fe608060405234801561000f575f80fd5b506004361061003f575f3560e01c8063893d20e814610043578063c6863fe314610061578063f2fde38b1461006b575b5f80fd5b61004b610087565b60405161005891906102d6565b60405180910390f35b6100696100ae565b005b6100856004803603810190610080919061031d565b610183565b005b5f805f9054906101000a900473ffffffffffffffffffffffffffffffffffffffff16905090565b5f8054906101000a900473ffffffffffffffffffffffffffffffffffffffff1673ffffffffffffffffffffffffffffffffffffffff166100ec610290565b73ffffffffffffffffffffffffffffffffffffffff1614610142576040517f08c379a0000000000000000000000000000000000000000000000000000000008152600401610139906103c8565b60405180910390fd5b5f805f6101000a81548173ffffffffffffffffffffffffffffffffffffffff021916908373ffffffffffffffffffffffffffffffffffffffff160217905550565b5f8054906101000a900473ffffffffffffffffffffffffffffffffffffffff1673ffffffffffffffffffffffffffffffffffffffff166101c1610290565b73ffffffffffffffffffffffffffffffffffffffff1614610217576040517f08c379a000000000000000000000000000000000000000000000000000000000815260040161020e906103c8565b60405180910390fd5b5f73ffffffffffffffffffffffffffffffffffffffff168173ffffffffffffffffffffffffffffffffffffffff160361024e575f80fd5b805f806101000a81548173ffffffffffffffffffffffffffffffffffffffff021916908373ffffffffffffffffffffffffffffffffffffffff16021790555050565b5f33905090565b5f73ffffffffffffffffffffffffffffffffffffffff82169050919050565b5f6102c082610297565b9050919050565b6102d0816102b6565b82525050565b5f6020820190506102e95f8301846102c7565b92915050565b5f80fd5b6102fc816102b6565b8114610306575f80fd5b50565b5f81359050610317816102f3565b92915050565b5f60208284031215610332576103316102ef565b5b5f61033f84828501610309565b91505092915050565b5f82825260208201905092915050565b7f4f6e6c79206f776e65722063616e206578656375746520746869732066756e635f8201527f74696f6e00000000000000000000000000000000000000000000000000000000602082015250565b5f6103b2602483610348565b91506103bd82610358565b604082019050919050565b5f6020820190508181035f8301526103df816103a6565b905091905056fea26469706673582212204cddb631da29f204baab06fd7b1ee463086fb0d4763911ecbe13d4ca530856f364736f6c63430008140033",
  "immutableReferences": {},
  "source": "// SPDX-License-Identifier: MIT\r\n\r\npragma solidity^0.8.10;\r\n\r\nimport {Context} from \"./Context.sol\";\r\n\r\ncontract Ownable is Context{\r\n\r\n    modifier onlyOwner{\r\n        require(_msgSender() == _owner,\"Only owner can execute this function\");\r\n        _;\r\n    }\r\n\r\n    address internal _owner;\r\n\r\n    function getOwner()public view virtual returns(address){\r\n        return _owner;\r\n    }\r\n\r\n    function transferOwnership(address newOwner) public virtual onlyOwner(){\r\n        require(newOwner != address(0));\r\n        _owner = newOwner;\r\n    }\r\n\r\n    function destroyOwnership() public virtual onlyOwner(){\r\n        _owner = address(0);\r\n    }\r\n\r\n}",
  "sourcePath": "C:\\Users\\Jonas\\Desktop\\Programmierstuff\\eigene Projekte\\Staking-Contract\\contracts\\Ownable.sol",
  "compiler": {
    "name": "solc",
    "version": "0.8.20+commit.a1b79de6.Emscripten.clang"
  },
  "schemaVersion": "3.4.15",
  "updatedAt": "2024-01-14T16:26:18.584Z",
  "devdoc": {
    "kind": "dev",
    "methods": {},
    "version": 1
  },
  "userdoc": {
    "kind": "user",
    "methods": {},
    "version": 1
  }
}